:100000000C94CD1C0C94FE1C0C94FE1C0C94FE1C39
:100010000C94FE1C0C943D9E0C944C9E0C94FE1C67
:100020000C94FE1C0C94789E0C94BF9E0C94FE1CA9
:100030000C94FE1C0C94FE1C0C94FE1C0C94FE1CD8
:100040000C94FE1C0C949F590C94FE1C0C94FE1CEA
:100050000C94FE1C0C94FE1C0C94FE1C0C9451ACD5
:100060000C94FE1C0C94B3A60C94FDA60C94FE1CE0
:100070000C94FE1C0C94269F0C94FE1C0C94FE1CED
:100080000C94CB590C94FE1C0C94FE1C0C94FE1C7E
:100090000C94FE1C0C94FE1C0C94FE1C0C9447B299
:1000A0000C94FE1C0C94FE1C0C94F7590C94FE1C32
:1000B0000C94FE1C0C94FE1C0C94FE1C0C94235AF5
:1000C0000C94FE1C0C94FE1C0C94039E0C945CA7D8
:1000D0000C94A6A70C94FE1C0C9405A80C944FA895
:1000E0000C94FE1CF91F002010201B2026202B2022
:1000F0003520402048209A20AB20C020D120E2208B
:10010000F32004211521262140214D215E216F215C
:1001100080219121A221B321C4213822D521E621B9
:10012000F721082218223822382238223822382291
:1001300038223822382238223822382238223822EF
:10014000382238222822392C402C472C4E2C552C72
:100150006D2C5C2C6D2C632CDF2CE32CE72CEB2C12
:10016000EF2CF32CF72C9F69A369AE69AE69A769E0
:10017000AE699D69AE69AE69AE69A169AE69AE69E5
:10018000AE69AE69AE69A5699969AE69AE69AC69D7
:10019000BF69C369C769CB69DF69CF69D369D769AB
:1001A000DB69AE73B173B473B773BA73BD73C073E5
:1001B000527555755B755E757275757578757D755B
:1001C00060818581B481E38112824182708287825D
:1001D000B682E582148343839B89BE89E189058ABF
:1001E000288A4C8A708A938AB78ADA8AFE8A228B96
:1001F0008CAD8FAD7EAD82AD88ADC6AD93AD97AD04
:100200009DADA1ADA5ADABADAFADB3ADC6ADB9AD17
:10021000BDADC1AD00407A10F35A00A0724E18096E
:100220000010A5D4E80000E87648170000E40B545D
:10023000020000CA9A3B000000E1F505000080962C
:100240009800000040420F000000A086010000005E
:10025000102700000000E803000000006400000018
:1002600000000A00000000000100000000002C76E1
:10027000D888DC674F0823DFC1DFAE59E1B1B796FC
:10028000E5E3E453C63AE651997696E8E6C2842659
:10029000EB898C9B62ED407C6FFCEFBC9C9F40F235
:1002A000BAA56FA5F490055A2AF75C936B6CF967B1
:1002B0006DC11BFCE0E40D47FEF520E6B500D0ED76
:1002C000902E0300943577050080841E08000020DE
:1002D0004E0A000000C80C333333330F986E12837C
:1002E0001141EF8D2114893BE65516CFFEE6DB1850
:1002F000D1844B381BF77C1D901DA4BBE424203215
:1003000084725E228100C9F124ECA1E53D2765726B
:10031000726F7200646F6E650009496E697469617D
:100320006C697A696E67204248313735305F3078C2
:1003300035432E2E2E006572726F7200646F6E65EB
:100340000009496E697469616C697A696E67204257
:1003500048313735305F307832332E2E2E006572BB
:10036000726F7200646F6E6500094572726F722061
:10037000616464726573730009496E697469616CC4
:10038000697A696E672054534C323536315F307864
:1003900034392E2E2E0009496E697469616C697AB0
:1003A000696E672054534C323536315F30783239BC
:1003B0002E2E2E0009496E697469616C697A696E26
:1003C000672054534C323536315F307833392E2E16
:1003D0002E00646F6E650009496E697469616C690D
:1003E0007A696E6720494E413231392E2E2E0065D2
:1003F00072726F7200646F6E650009496E6974698C
:10040000616C697A696E6720424D453238302E2E14
:100410002E00646F6E650009496E697469616C69CC
:100420007A696E6720445331384232302E2E2E00C6
:1004300054686520706F72742069736E277420632E
:100440006F6E6669677572656400456E61626C65A2
:10045000205374657070657220506F727400416E25
:10046000616C6F6720533500416E616C6F6720537C
:100470003400416E616C6F6720533300416E616CD4
:100480006F6720533200416E616C6F6720533100FB
:100490004750494F2D38004750494F2D370047509E
:1004A000494F2D31004750494F2D35004750494F96
:1004B0002D34004750494F2D33004750494F2D32BE
:1004C000004750494F2D31004558545F52554E5FFB
:1004D0005354455050455200506F72742069736EEA
:1004E000277420636F6E6E656374656400455854AD
:1004F0005F50494E5F39004558545F50494E5F3850
:10050000004558545F50494E5F37004558545F507E
:10051000494E5F36004558545F50494E5F3500459F
:1005200058545F50494E5F34004558545F50494E0F
:100530005F33004558545F50494E5F320045585470
:100540005F50494E5F31004572726F722064617472
:100550006100494E5055545F4449474954414C5FEE
:1005600050494E5F3900494E5055545F4449474900
:1005700054414C5F50494E5F3800494E5055545FCE
:100580004449474954414C5F50494E5F3700494EFA
:100590005055545F4449474954414C5F50494E5F60
:1005A0003600494E5055545F4449474954414C5FC9
:1005B00050494E5F3500494E5055545F44494749B4
:1005C00054414C5F50494E5F3400494E5055545F82
:1005D0004449474954414C5F50494E5F3300494EAE
:1005E0005055545F4449474954414C5F50494E5F10
:1005F0003200494E5055545F4449474954414C5F7D
:1006000050494E5F3100002000454550524F4D206B
:10061000697320636C65616E00436F6E6669676025
:100620007320636F6E74726F6C6C6572206F6E20D6
:10063000454550524F4D20697320636C65616E00D3
:10064000436F6E66696760732065786563206D6FC0
:1006500064756C6573206F6E20454550524F4D2078
:10066000697320636C65616E00436F6E66696760D5
:10067000732067726F75706073206F6E20454550F0
:10068000524F4D20697320636C65616E00436F6E3D
:100690006669677360732073656E736F7260732031
:1006A0006F6E20454550524F4D20697320636C6535
:1006B000616E004572726F726073206F6E204545E7
:1006C00050524F4D20697320636C65616E000909BB
:1006D00009090909092E2E2E647269766572207344
:1006E000746570706572206D6F746F72206973200D
:1006F00073746F7000090909090909092E2E2E4823
:1007000061726477617265207175616E7469747964
:10071000206F6620746865207061737361626C6518
:10072000207374657073203D2000090909090909C7
:10073000092E2E2E5061737361626C652071756194
:100740006E74697479206F66207374657073203DD0
:100750002000090909090909092E2E2E5175616E1B
:1007600074697479206F66207374657073206F6686
:1007700020746865206D6F746F72203D2000090938
:1007800009090909092E2E2E5573652064656661D5
:10079000756C74207365744D617853706565642061
:1007A0003D2035303000090909090909092E2E2E8E
:1007B0005573652064656661756C7420736574415A
:1007C0006363656C65726174696F6E203D203130C2
:1007D000303000636D00090909090909092E2E2E20
:1007E00053746570203D2000206974206973207364
:1007F000746F70706564002069742069732073746D
:10080000617274656400090909090909092E2E2E0F
:100810006472697665722073746570706572206D9C
:100820006F746F72206F6E20706F72742000293A9F
:100830002000090909090909092E2E2E5550207397
:1008400077697463682800293A20000909090909B1
:1008500009092E2E2E444F574E2073776974636812
:100860002028002E00006F6E006F666600090909DF
:1008700009092E2E2E54686520706F7274206973DA
:100880006E277420636F6E66696775726564000910
:10089000090909090909092E2E2E6D6F76656D6506
:1008A0006E74206973206572726F722121210009B4
:1008B000090909090909092E2E2E6D6F76656D65E6
:1008C0006E7420697320646F6E652121210009090F
:1008D0000909090909092E2E2E6D6F76656D656E61
:1008E0007420697320737461727465640009090966
:1008F00009090909092E2E2E706F72742069732060
:10090000696E697469616C697A696E67002A002E84
:1009100020416E676C6520526F746174696F6E3A26
:1009200020002900202800090909090909092E2E9B
:100930002E52756E20536572766F206D6F746F72D4
:10094000206F6E20002A002E205369676E616C2094
:100950004C6576656C3A2000090909092E2E2E5245
:10096000756E2050574D206F6E20706F727420008E
:1009700041542B435553443D300076616C3A20007E
:1009800052696E6750686F6E653A20004368656310
:100990006B20696E70757420534D5300415448307C
:1009A000004154483000436865636B20696E707580
:1009B000742052494E470076616C2D696E707574D3
:1009C0003A200047534D20696E707574206461743D
:1009D0006100557074696D653A20003A003A002054
:1009E0000054656D705F494E543A200020005465F4
:1009F0006D705F4558543A200044533138423230CC
:100A00005F45617274685F506970653A20004453B5
:100A100031384232305F45617274683A2000564383
:100A2000433A20002B3739313339303435393235B8
:100A30000053746174757300426C7565746F6F74E4
:100A4000682072756E0057692D46692072756E00B8
:100A500041542B434D47443D340041542B434D47B3
:100A6000443D302C340041542B4353434C4B3D31D7
:100A70000041542B434E4D493D322C320041542B02
:100A8000435343533D2247534D220041542B434D82
:100A900047463D310041542B434C49503D310041C4
:100AA00054453156312B434D45453D323B26570089
:100AB00041544530003233003232003231000045BB
:100AC00072726F72206D656E7520202020202000CC
:100AD0002020202000493A002020005643433A00BD
:100AE0004C696768742050616E656C20202020205E
:100AF000004F666620200020004572726F72002051
:100B00002020202020202020202020202020200005
:100B10002500202020002020202020202020202010
:100B200020202020202000430076002020202020AC
:100B30002020202020202020202020004D616E75C4
:100B4000616C002020202020202020202020202038
:100B5000202020004175746F6D6174696300436FDC
:100B60006E74726F6C6C65722052756E2020005B23
:100B70004248313735305D204465766963652069C8
:100B800073206E6F7420636F6E666967757265643B
:100B900021005B4248313735305D204552524F527B
:100BA0003A20756E646566696E6564206572726F61
:100BB00072005B4248313735305D204552524F520A
:100BC0003A206F74686572206572726F72005B42C2
:100BD00048313735305D204552524F523A207265C8
:100BE000636569766564204E41434B206F6E2074C7
:100BF00072616E736D6974206F6620646174610048
:100C00005B4248313735305D204552524F523A20D1
:100C10007265636569766564204E41434B206F6E53
:100C2000207472616E736D6974206F6620616464F4
:100C300072657373005B4248313735305D20455231
:100C4000524F523A20746F6F206C6F6E6720666F40
:100C500072207472616E736D697420627566666568
:100C600072005B4248313735305D204552524F5259
:100C70003A204D54726567206F7574206F6620723C
:100C8000616E6765005B4248313735305D20455203
:100C9000524F523A20756E646566696E65642065D0
:100CA00072726F72005B4248313735305D204552B9
:100CB000524F523A206F74686572206572726F727B
:100CC000005B4248313735305D204552524F523A31
:100CD000207265636569766564204E41434B206FE1
:100CE0006E207472616E736D6974206F662064612A
:100CF0007461005B4248313735305D204552524FB8
:100D0000523A207265636569766564204E41434BB3
:100D1000206F6E207472616E736D6974206F66202F
:100D200061646472657373005B4248313735305DCE
:100D3000204552524F523A20746F6F206C6F6E678D
:100D400020666F72207472616E736D6974206275B3
:100D500066666572005B4248313735305D2045522A
:100D6000524F523A20496E76616C6964206D6F640F
:100D70006500005EBCE2613FDD83C29C7E20A3FD76
:100D80001F419DC3217FFCA2401E5F01E3BD3E6069
:100D900082DC237D9FC1421CFEA0E1BF5D0380DE9B
:100DA0003C62BEE0025CDF81633D7C22C09E1D434D
:100DB000A1FF4618FAA427799BC584DA3866E5BBFB
:100DC0005907DB856739BAE406581947A5FB782629
:100DD000C49A653BD987045AB8E6A7F91B45C6985B
:100DE0007A24F8A6441A99C7257B3A6486D85B050D
:100DF000E7B98CD2306EEDB3510F4E10F2AC2F71BB
:100E000093CD114FADF3702ECC92D38D6F31B2ECE8
:100E10000E50AFF1134DCE90722C6D33D18F0C521A
:100E2000B0EE326C8ED0530DEFB1F0AE4C1291CFCC
:100E30002D73CA947628ABF517490856B4EA69377A
:100E4000D58B5709EBB536688AD495CB2977F4AAA8
:100E50004816E9B7550B88D6346A2B7597C94A14DA
:100E6000F6A8742AC896154BA9F7B6E80A54D7898C
:100E70006B357C3C3E5E2B3D3F2F5B5D3B2C2A223D
:100E80005C002E0030002E002020003A0054696DD6
:100E900065206F6620746865206C617374207374BC
:100EA0006172743A20003A003A002064617973203C
:100EB000616E64203A00436F6E74726F6C6C657281
:100EC00020757074696D653A200027206973206E63
:100ED0006F7420636F6E66696775726564000909D7
:100EE000094D616E6167656D656E74206F66206780
:100EF000726F757020270029000909094D616E6124
:100F000067656D656E74206F662067726F757020FF
:100F10006973207374617274656420696E2054650E
:100F2000726D6F73746174206D6F646520280009A1
:100F30000909092E2E2E5468652076616C7565208E
:100F40006F66207468652073656E736F72206973B5
:100F5000206572726F7200090909092E2E2E5468DD
:100F6000652076616C7565206F66207468652073F6
:100F7000656E736F7220646964206E6F742063689D
:100F8000616E676500090909092E2E2E4D616E619B
:100F900067656D656E74206F662067726F7570206F
:100FA00069732073746F707065642E205468657265
:100FB0006520617265206E6F2064617461206F66C8
:100FC000207468652073656E736F720009090909E2
:100FD000092E2E2E4D616E6167656D656E74206FF2
:100FE000662067726F75702069732073746F7070FC
:100FF00065642E204D6F64756C6573206973206E77
:101000006F7420666F756E640029004D696E5661BD
:101010006C756547726F757020280029203E20008E
:10102000090909092E2E2E5265616C56616C756591
:1010300020280029004D696E56616C756547726FF6
:10104000757020280029203C200009090909092E73
:101050002E2E5265616C56616C7565202800290042
:101060004D696E56616C756547726F75702028000A
:1010700029203C200009090909092E2E2E526561FC
:101080006C56616C756520280029004D696E5661AB
:101090006C756547726F757020280029203E20000E
:1010A00009090909092E2E2E5265616C56616C756D
:1010B00065202800290029203C204D696E56616C6E
:1010C000756547726F757020280009090909092E96
:1010D0002E2E56616C7565202800290029203E209F
:1010E0004D617856616C756547726F757020280088
:1010F00009090909092E2E2E56616C7565202800F4
:1011000009090909092E2E2E5468652076616C752F
:1011100065207374616E6473207374696C6C200055
:1011200009090909092E2E2E5468652076616C750F
:101130006520676F6573207570200009090909092A
:101140002E2E2E5468652076616C756520676F655C
:101150007320646F776E2000290029203C204D61A8
:101160007856616C756547726F75702028005661FE
:101170006C756520280029203C200009090909090F
:101180002E2E2E4D696E56616C756547726F7570A7
:10119000202800090909092E2E2E4D616E61676510
:1011A0002067726F75702D2D2D3E200009090909E9
:1011B00056616C75652073656E736F723A20000915
:1011C000090909092E2E2E4D617856616C75654707
:1011D000726F75703A200009090909092E2E2E4DEB
:1011E000696E56616C756547726F75703A200009BB
:1011F000090909426F756E646172792076616C75B8
:101200006573206F662067726F75703A2000090958
:101210000909092E2E2E69736E277420707265736A
:10122000656E7420746865206D6F64756C652069E7
:101230007320636F6E6669677572656400090909DA
:10124000090909092E2E2E4D616E6167656D656E67
:1012500074206F66206469676974616C20706F72B6
:101260007420646F6573206E6F7420776F726B20CB
:10127000696E20746865206D6F646520696E2070EA
:10128000726F706F7274696F6E206F66206D616E21
:101290006167656D656E74003A204C4F57003A20C7
:1012A0004849474800090909090909092E2E2E70E5
:1012B0006F727420002E204974206973207265615A
:1012C0006479206173204469676974616C20706F70
:1012D0007274000909090909092E2E2E45786563E3
:1012E0007574697665206D6F64756C653A20002EA3
:1012F00020497420697320726561647920617320CC
:10130000536572766F000909090909092E2E2E45C9
:101310007865637574697665206D6F64756C653A80
:1013200020000909090909092E2E2E54686520702C
:101330006F72742069736E277420636F6E666967BD
:101340007572656420666F7220776F726B207769A3
:1013500074682050574D002E204974206973207204
:10136000656164792061732050574D0009090909AE
:1013700009092E2E2E457865637574697665206D92
:101380006F64756C653A20002E20497420697320C3
:101390007265616479206173205374657070657241
:1013A000206D6F746F7220000909090909092E2E3A
:1013B0002E457865637574697665206D6F64756C0C
:1013C000653A2000436861726765206F6620746823
:1013D000652062617474657279206973204F4B3A9D
:1013E00020005643433A20004C6F772063686172B7
:1013F0006765206F66207468652062617474657229
:10140000793A20004C6F7720636861726765206FBE
:101410006620746865206261747465727900564351
:10142000433A20002B3739313339303435393235AE
:10143000004C6F7720636861726765206F66207467
:10144000686520626174746572793A2000646F6E19
:101450006500094C6F67696E672076616C75652061
:1014600073656E736F727320746F2066696C652E7E
:101470002E2E000056616C756520616C6C207365C2
:101480006E736F72733A20000943616C63756C610F
:1014900074652073656E736F72732E2E2E00004577
:1014A000786563206D6F64756C6520637572726515
:1014B0006E743A2000496E707574205643433A208A
:1014C0000045525200200020003000200030002053
:1014D00000300020003000200030002000200020DC
:1014E00000200020002000200020002000200020FC
:1014F00000200030002000200063203020003D3D0F
:101500003D3D3D3D3D3D3D3D3D3D3D3D3D3D3D3D0B
:101510003D3D3D3D3D3D3D3D3D3D3D3D3D3D3D3DFB
:101520003D3D3D3D3D3D00455F506F776572534900
:101530004D3830303A20002073656300455F4C6FB2
:101540006F7047726F757052756E3A200020736528
:101550006300455F4C6F6F705772697465446174C6
:10156000614F6E534454696D653A20002073656382
:1015700000455F4C6F6F7053656E736F7254696D89
:10158000653A20002073656300455F4C6F6F704CB7
:1015900043444C6967687454696D653A2000455F3F
:1015A000426C7565746F6F746854696D654F6666DB
:1015B0003A2000455F436F6E666967506F776572CA
:1015C000426C7565746F6F74683A2000455F4D6FAB
:1015D0006465436F6E74726F6C6C65723A2000457F
:1015E0005F436643616C6344433A2000455F496E44
:1015F0007075745643433A2000455F454E41424C56
:10160000455F4C4F47494E475F544F5F53443A2024
:1016100000455F4C4F47494E475F544F5F5345521B
:1016200049414C3A2000455F4D696E496E707574B2
:101630005643433A2000455F536F6C7574696F6E73
:1016400054656D7053656E736F72733A20003D3D43
:101650003D3D3D3D3D20436F6E6669677572617427
:10166000696F6E20436F6E74726F6C6C6572203D93
:101670003D3D3D3D3D3D004461746120636F6E66BC
:10168000696720696E20454550524F4D206973208F
:1016900075706461746564006D20006D2000272002
:1016A000697320757064617465640053657474694E
:1016B0006E6773206F6620746865206D6F64756C4B
:1016C00065202700200020002000200020002000AE
:1016D00020003000200020002000200020002000FA
:1016E0002000200030200020003D3D3D3D3D3D3D9F
:1016F0003D3D3D3D3D3D3D3D3D3D3D3D3D3D3D3D1A
:101700003D3D3D3D3D3D3D3D3D3D3D3D00537769CA
:1017100074636820636F756E746572005570207312
:101720007769746368005479706520555020737729
:10173000697463683A2000005377697463682055C0
:101740005020706F72743A20000053776974636898
:1017500020444F574E20706F72743A200042696ED9
:10176000642067726F75703A200054686520747940
:101770007065206F6620746865206D6F64756C6598
:101780002069736E277420636F6E66696775726572
:10179000640000436F6E74726F6C20706F72743AE5
:1017A00020004469676974616C20706F7274004D29
:1017B0006178496D703A20004D696E496D703A202C
:1017C000004D616E75616C004175746F6D61746977
:1017D00063004D6F646520636F6E6669677572653F
:1017E0003A20004D617820616E676C65206F66203D
:1017F0007475726E3A200074686520706F72742080
:1018000069736E277420636F6E66696775726564AD
:101810000000436F6E74726F6C20706F72743A20A8
:1018200000536572766F206D6F746F7200323535BC
:10183000004D6178206C69667420726F7461746900
:101840006F6E3A200074686520706F72742069733F
:101850006E277420636F6E66696775726564000039
:10186000436F6E74726F6C20706F72743A20005008
:10187000574D0053746570207365652F61626F75F5
:10188000743A2000736574416363656C65726174BA
:10189000696F6E3A20007365744D617853706565A9
:1018A000643A20004D6178206C69667420726F7410
:1018B0006174696F6E3A20004D616E75616C004114
:1018C00075746F6D61746963004D6F646520636F3B
:1018D0006E6669677572653A200000436F6E7472B8
:1018E0006F6C20706F72743A20005374657070656D
:1018F00072206D6F746F720054797065206D6F6423
:10190000756C653A20004572726F72206461746173
:10191000006F6E006F666600537461747573206D9E
:101920006F64756C653A200027203D3D3D3D3D3D8F
:101930003D003D3D3D3D3D3D3D20436F6E66696749
:1019400075726174696F6E206D6F64756C652027A8
:101950000020002000200020002000200020002E79
:10196000002E0020003A003A0053756E6461790041
:1019700053617475726461790046726964617900BB
:101980005468757273646179005765646E65736439
:1019900061790054756573646179004D6F6E64619F
:1019A000790020002000436F6E666967757261746C
:1019B000696F6E204461746520616E642054696DA6
:1019C000653A2020200044617461206973206572AB
:1019D000726F7200416C6C00004F6E6C79207468FD
:1019E00065206572726F7273004F6E6C7920746837
:1019F00065206D616E6167656D656E742067726FDD
:101A00007570004F6E6C79207468652073656E7315
:101A10006F7273004F666600546865206D6F646571
:101A2000206F66206120636F6E636C7573696F6EE3
:101A3000206F66206461746120696E20536572694D
:101A4000616C206973206368616E676564206F6EE6
:101A50003A2000446174612067726F757020696E6E
:101A600020454550524F4D20697320757064617454
:101A70006564003D3D3D3D3D3D3D3D3D3D3D3D3D84
:101A80003D3D3D3D3D3D3D3D3D3D3D3D3D3D3D3D86
:101A90003D3D3D3D3D3D3D3D3D3D00002000457807
:101AA0006563206D6F64756C653A200045787465D8
:101AB000726E616C206D6F64653A204974206973A1
:101AC0006E277420636F6E66696775726564005473
:101AD000696D65725F64656C7461003A0054696D8C
:101AE000652073746172743A20003A0054696D6520
:101AF0002073746F703A20003A0054696D6520734A
:101B0000746172743A200000455F4D696E56616CD5
:101B1000756547726F75703A20004D696E56616C3D
:101B2000756547726F75703A20004D617856616C2B
:101B3000756547726F75703A20004D696E56616C1D
:101B4000756547726F75703A20000000202056615D
:101B50006C75653A200053656E736F723A200049C8
:101B6000742069736E277420636F6E66696775727F
:101B70006564002835292054696D6572206D6F6495
:101B8000652E20506172616D657465722035002884
:101B900034292054696D6572206D6F64652E205064
:101BA0006172616D65746572203400283329205498
:101BB0006865726D6F73746174206D6F64652E203B
:101BC0004D616E6167656D656E742061742076612C
:101BD0006C7565206F66207468652073656E736F21
:101BE00072206973206C657373207468616E204580
:101BF0005F4D696E56616C756547726F7570002830
:101C0000322920546865726D6F73746174206D6F32
:101C100064652E204D616E6167656D656E7420612F
:101C20007420657863657373206F6620455F4D6926
:101C30006E56616C756547726F75702076616C7554
:101C4000650028312920546865726D6F7374617462
:101C5000206D6F64652E2050726F706F7274696FA3
:101C60006E616C206D616E6167656D656E740043B9
:101C70006F6E74726F6C6C5F47726F75703A200094
:101C80006F6666006F6E005374617475733A20005E
:101C900027203D3D3D3D3D3D3D3D3D3D3D003D3DE4
:101CA0003D3D3D3D3D3D3D3D3D20436F6E66696799
:101CB0002067726F75702027002000200020002010
:101CC0000020002000200020002000200030002004
:101CD0000067200020002000200020006920003D37
:101CE0003D3D3D3D3D3D3D3D3D3D3D3D3D3D3D3D24
:101CF0003D3D3D3D3D3D3D3D3D3D3D3D3D3D3D3D14
:101D00003D3D3D3D3D3D3D002073656300455F4CDD
:101D10006F6F7047726F757052756E3A2000207346
:101D2000656300455F4C6F6F7057726974654461FD
:101D300074614F6E534454696D653A200020736599
:101D40006300455F4C6F6F7053656E736F725469BB
:101D50006D653A20002073656300455F4C6F6F70BE
:101D60004C43444C6967687454696D653A20003D82
:101D70003D3D3D3D3D3D20436F6E66696775726137
:101D800074696F6E20496E74657276616C73203D64
:101D90003D3D3D3D3D3D3D004461746120696E74B3
:101DA000657276616C7320696E20454550524F4DC7
:101DB000206973207570646174656400732000731A
:101DC000200020697320636F6E6669677572696EA3
:101DD0006720696E20454550524F4D20202020201D
:101DE00020202020200053656E736F722000200099
:101DF00020002000200020002000200020002000E3
:101E000020002000200020002000200020002000D2
:101E100020002000200020002000300020003D3D58
:101E20003D3D3D3D3D3D3D3D3D3D3D3D3D3D3D3DE2
:101E30003D3D3D3D3D3D3D3D3D3D3D3D3D3D3D3DD2
:101E40003D3D3D3D3D004E6F6E650047726F7570C4
:101E500020350047726F757020340047726F7570BF
:101E600020330047726F757020320047726F7570B3
:101E70002031000909094C45443A20006F6E006F7B
:101E8000666600090909534420636172643A2000C0
:101E90004E6F6E650053656E6420666F722047500A
:101EA00052530053656E6420534D530009457874B6
:101EB000206D61696C3A20005265616374696F6ED0
:101EC00020746F206D697374616B65733A200051E3
:101ED00075616E74697479206572726F72207265B3
:101EE00061642076616C75653A20005175616E748D
:101EF00069747920726561642076616C75653A2039
:101F0000004C7578004C756D00556E697473206FC8
:101F100066206D6561737572653A20000049522034
:101F2000737065637472756D0046756C6C207370A8
:101F300065637472756D0056697369626C652073B0
:101F40007065637472756D00436F6E666967757254
:101F50006174696F6E733A2000536F6C7574696FAA
:101F60006E2000436F6E66696775726174696F6E8B
:101F7000733A20006F66660000436F6E74726F6C78
:101F800020506F72743A20006F6E00416C6C6F7756
:101F90002074686520636F6E74726F6C20706F724E
:101FA000743A20006175746F6D61746963007365C4
:101FB0006300496E74657276616C20706F6C6C3A68
:101FC00020006D616E75616C0053656E736F7220D9
:101FD000706F6C6C20696E74657276616C3A20006B
:101FE0000020004572726F72733A20000009003AB7
:101FF00020002056616C75655F0047726F75703AFE
:1020000020006F6666006F6E0027203D3D3D3D3D20
:102010003D3D3D3D3D003D3D3D3D3D3D3D3D3D3D2D
:1020200020436F6E6669672073656E736F72202739
:10203000004D756C7469284578742054656E732062
:10204000616E64204375727229004D756C74692845
:1020500054656D702C20507265737320616E64201E
:1020600048756D6D2041697229004D756C74692841
:10207000507265737320616E642048756D6D2041E8
:10208000697229004D756C74692854656D70206102
:102090006E642048756D6D2900416E616C6F67201C
:1020A00056616C75650045787465726E616C20438D
:1020B000757272656E740045787465726E616C201D
:1020C00054656E73696F6E0041746D6F73706865EF
:1020D000726963205072657373757265004C69672D
:1020E00068742053656E736F720048756D6964691A
:1020F000747920536F696C0048756D6964697479EF
:10210000204169720054656D7000547970653A2001
:1021100000290020284445433A20003078004164DB
:1021200064726573733A2000494E41333232310094
:10213000290020284445433A200030780041646457
:10214000726573733A20004C4D3735002900202802
:102150004445433A200030780041646472657373EB
:102160003A20004D415834343030390029002028BD
:102170004445433A200030780041646472657373CB
:102180003A200042483137353000290020284445A4
:10219000433A2000307800416464726573733A20DA
:1021A0000054534C323536310000506F72743A206F
:1021B00000416E616C6F672053656E736F7200290A
:1021C0000020284445433A2000307800416464727E
:1021D0006573733A2000494E41323139002900209D
:1021E000284445433A2000307800416464726573A6
:1021F000733A2000424D50323830002900202844E4
:1022000045433A2000307800416464726573733A44
:102210002000424D453238300029002028444543F3
:102220003A2000307800416464726573733A20008C
:102230005369373032312C2048545532314400290B
:102240000020284445433A200030780041646472FD
:102250006573733A2000414D32333230003A004109
:102260006464726573733A200044533138423230EB
:102270000053656E736F723A200000203B200020EF
:102280002000202000646F6E650A004E6F204932E6
:1022900043206465766963657320666F756E640AB2
:1022A000003000556E6B6E6F776E206572726F72C4
:1022B0002061742061646472657373203078002734
:1022C0004C4344204F4C4544203132387836342733
:1022D0000027424D503138302C20424D503238309A
:1022E0002C20424D45323830206261726F6D65742A
:1022F0007269632070726573737572652073656EA1
:10230000736F72270027424D503138302C20424DD8
:10231000503238302C20424D4532383020626172C4
:102320006F6D657472696320707265737375726521
:102330002073656E736F722700274C4344204F4C07
:10234000454420313238783634270027445333321D
:102350003331207265616C2D74696D6520636C6F1B
:10236000636B27204F5220274D50552D3932353081
:10237000204E696E6520617869732073656E736F96
:1023800072206D6F64756C652700274144584C338B
:10239000343520496E70757420332D41786973206F
:1023A0004469676974616C20416363656C65726F31
:1023B0006D657465722700274154323443333220EF
:1023C000454550524F4D2700274144533131313557
:1023D000204D6F64756C652031362D42697427007D
:1023E0002741445331313135204D6F64756C652080
:1023F00031362D426974270027414453313131353C
:10240000204D6F64756C652031362D42697427202C
:102410004F5220275350492D746F2D554152542748
:10242000002741445331313135204D6F64756C655F
:102430002031362D426974270027424D5031383003
:102440002C205369373031332C20536937303230E8
:102450002C205369373032312C20485455323144C6
:102460002C20534854323127002754534C323536F0
:102470003120416D6269656E74204C696768742013
:1024800053656E736F7227002750434638353734D3
:1024900020382D42697420492F4F20457870616E95
:1024A00064657227204F5220274C434D313630321D
:1024B000204C4344204164617074657220270027DA
:1024C0005043463835373420382D42697420492F1F
:1024D0004F20457870616E6465722700275043462F
:1024E0003835373420382D42697420492F4F204524
:1024F0007870616E6465722700275043463835371F
:102500003420382D42697420492F4F20457870615E
:102510006E646572270027504346383537342038BB
:102520002D42697420492F4F20457870616E646593
:102530007227204F522027424831373530465649BE
:10254000206469676974616C204C69676874205302
:10255000656E736F72270027504346383537342035
:10256000382D42697420492F4F20457870616E6480
:1025700065722700275043463835373420382D42BE
:10258000697420492F4F20457870616E6465722709
:1025900000275043463835373420382D426974209F
:1025A000492F4F20457870616E64657227204F5225
:1025B00020274C434D31363032204C434420416477
:1025C000617074657227200027546F75636820530B
:1025D000656E736F72270027424831373530465693
:1025E00049206469676974616C204C69676874206C
:1025F00053656E736F7227204F522027546F756397
:10260000682053656E736F720027546F756368207E
:1026100053656E736F72270027546F75636820537C
:10262000656E736F72270027484D43353838332065
:10263000332D41786973204469676974616C204364
:102640006F6D706173732700274144584C333435E4
:1026500020496E70757420332D4178697320446968
:10266000676974616C20416363656C65726F6D6549
:102670007465722700274D6F746F722044726976FB
:1026800065722700274D6F746F72204472697665FA
:10269000722700202D20003078005363616E6E6930
:1026A0006E67206932632E2E2E002E2E2E0020699A
:1026B0007320636F6E6E656374656420746F20763B
:1026C000616C7565200009092E2E2E7468652067DF
:1026D000726F7570200009093D3D3D3D3D3D3D3D1A
:1026E0003D3D3D3D3D3D3D3D3D3D3D3D3D3D3D3D1A
:1026F0003D3D3D002000092E2E2E53656E736F72F6
:102700002000092E2E2E53656E736F72200028490B
:102710004E4133323231290028494E413332323171
:102720002900284C4D37352900284C4D37352900D4
:10273000284D415834343030392900284D4158341F
:1027400034303039290028424831373530290028C3
:1027500042483137353029002854534C3235363110
:1027600029002854534C32353631290028416E61F6
:102770006C6F6720506F7274290028416E616C6F16
:102780006720506F7274290028494E41323139292F
:102790000028494E41323139290028424D50323803
:1027A00030290028424D50323830290028424D450A
:1027B000323830290028424D453238302900284827
:1027C00054553231442900284854553231442900A7
:1027D00028414D32333032290028414D32333032D6
:1027E00029002844533138423230290028445331DB
:1027F00038423230290009092E2E2E746865207067
:102800006F727420646F6573206E6F7420737570BF
:10281000706F727420616E616C6F67206D6561739B
:102820007572656D656E7473002E2E2E646F6E6505
:102830000009092E2E2E6D6561737572656D656ECA
:102840007420414E414C4F475F5335002E2E2E646D
:102850006F6E650009092E2E2E6D656173757265A8
:102860006D656E7420414E414C4F475F5335002ECD
:102870002E2E646F6E650009092E2E2E6D65617314
:102880007572656D656E7420414E414C4F475F53C4
:1028900034002E2E2E646F6E650009092E2E2E6DCB
:1028A0006561737572656D656E7420414E414C4F64
:1028B000475F5334002E2E2E646F6E650009092E7B
:1028C0002E2E6D6561737572656D656E7420414E57
:1028D000414C4F475F5333002E2E2E646F6E6500C0
:1028E00009092E2E2E6D6561737572656D656E74A6
:1028F00020414E414C4F475F5333002E2E2E646FC4
:102900006E650009092E2E2E6D6561737572656DF9
:10291000656E7420414E414C4F475F5332002E2E5E
:102920002E646F6E650009092E2E2E6D656173751C
:1029300072656D656E7420414E414C4F475F533256
:10294000002E2E2E646F6E650009092E2E2E6D65E9
:1029500061737572656D656E7420414E414C4F47D1
:102960005F5331002E2E2E646F6E650009092E2EE6
:102970002E6D6561737572656D656E7420414E4193
:102980004C4F475F5331003A3A43686F6963655F64
:10299000416E616C6F67506F7274003A3A43686FB2
:1029A0006963655F416E616C6F67506F7274003D63
:1029B0003D3D3D3D3D3D3D3D3D3D3D3D3D3D3D3D47
:1029C0003D3D3D3D3D3D3D3D3D3D3D3D3D3D3D0074
:1029D0000020002020202020002020003D3D3D3D03
:1029E0003D3D3D3D3D3D3D3D3D3D3D3D3D3D3D3D17
:1029F0003D3D3D3D3D3D3D3D3D3D3D3D002E2E2E71
:102A0000646F6E650009092E2E2E6D6561737572F7
:102A1000656D656E742048756D6D002E2E2E646F89
:102A20006E650009092E2E2E6D6561737572656DD8
:102A3000656E742054656D70002E2E2E646F6E6569
:102A40000009092E2E2E6D6561737572656D656EB8
:102A5000742048756D6D002E2E2E646F6E65000912
:102A6000092E2E2E6D6561737572656D656E74200D
:102A700054656D70002E2E2E646F6E650009092E50
:102A80002E2E6D6561737572656D656E7420487567
:102A90006D6D002E2E2E646F6E650009092E2E2E90
:102AA0006D6561737572656D656E742048756D6DC9
:102AB000002E2E2E646F6E650009092E2E2E6D6578
:102AC00061737572656D656E742054656D70002E4E
:102AD0002E2E646F6E650009092E2E2E6D656173B2
:102AE0007572656D656E742054656D70003A3A4379
:102AF000686F6963655F414D32333032003A3A4363
:102B0000686F6963655F414D3233303200457272E0
:102B10006F722073657474696E67204D54526567D7
:102B200020746F20686967682076616C756520661F
:102B30006F72206C6F77206C6967687420656E76A1
:102B400069726F6E6D656E740053657474696E673B
:102B5000204D5452656720746F206869676820763D
:102B6000616C756520666F72206C6F77206C696789
:102B7000687420656E7669726F6E6D656E7400455F
:102B800072726F722073657474696E67204D54524F
:102B9000656720746F2064656661756C742076616A
:102BA0006C756520666F72206E6F726D616C206C43
:102BB0006967687420656E7669726F6E6D656E7494
:102BC0000053657474696E67204D545265672074B4
:102BD0006F2064656661756C742076616C75652024
:102BE000666F72206E6F726D616C206C69676874BD
:102BF00020656E7669726F6E6D656E7400457272D7
:102C00006F722073657474696E67204D54526567E6
:102C100020746F206C6F772076616C756520666F0D
:102C2000722068696768206C6967687420656E76D1
:102C300069726F6E6D656E740053657474696E674A
:102C4000204D5452656720746F206C6F7720766139
:102C50006C756520666F722068696768206C6967AB
:102C6000687420656E7669726F6E6D656E74002E85
:102C70002E2E646F6E65002E2E2E646F6E65002EF4
:102C80002E2E6572726F7220636F6E646974696F45
:102C90006E206465746563746564002E2E2E657203
:102CA000726F7220636F6E646974696F6E20646501
:102CB0007465637465640009092E2E2E6D65617359
:102CC0007572656D656E74204C69676874000909DA
:102CD0002E2E2E6D6561737572656D656E74204C58
:102CE00069676874003A3A43686F6963655F424890
:102CF00031373530005F30783563005F30783233FC
:102D0000003A3A43686F6963655F4248313735304E
:102D1000002E2E2E646F6E650009092E2E2E6D6515
:102D200061737572656D656E7420507265737300A2
:102D30002E2E2E646F6E650009092E2E2E6D656194
:102D4000737572656D656E742048756D6D002E2EFD
:102D50002E646F6E650009092E2E2E6D65617375E8
:102D600072656D656E742054656D70002E2E2E6434
:102D70006F6E650009092E2E2E6D65617375726583
:102D80006D656E74205072657373002E2E2E646F05
:102D90006E650009092E2E2E6D6561737572656D65
:102DA000656E742048756D6D002E2E2E646F6E65F5
:102DB0000009092E2E2E6D6561737572656D656E45
:102DC000742054656D70002E2E2E646F6E650009A0
:102DD000092E2E2E6D6561737572656D656E74209A
:102DE0005072657373002E2E2E646F6E6500090994
:102DF0002E2E2E6D6561737572656D656E7420483B
:102E0000756D6D002E2E2E646F6E650009092E2ED5
:102E10002E6D6561737572656D656E742050726597
:102E20007373002E2E2E646F6E650009092E2E2EF0
:102E30006D6561737572656D656E742048756D6D35
:102E4000002E2E2E646F6E650009092E2E2E6D65E4
:102E500061737572656D656E742048756D6D002EB9
:102E60002E2E646F6E650009092E2E2E6D6561731E
:102E70007572656D656E742054656D70002E2E2E12
:102E8000646F6E650009092E2E2E6D656173757273
:102E9000656D656E742048756D6D002E2E2E646F05
:102EA0006E650009092E2E2E6D6561737572656D54
:102EB000656E742054656D70002E2E2E646F6E65E5
:102EC0000009092E2E2E6D6561737572656D656E34
:102ED00074205072657373002E2E2E646F6E650021
:102EE00009092E2E2E6D6561737572656D656E74A0
:102EF000205072657373002E2E2E646F6E6500096C
:102F0000092E2E2E6D6561737572656D656E742068
:102F100048756D6D002E2E2E646F6E650009092EAA
:102F20002E2E6D6561737572656D656E74204875C2
:102F30006D6D002E2E2E646F6E650009092E2E2EEB
:102F40006D6561737572656D656E742054656D7025
:102F5000002E2E2E646F6E650009092E2E2E6D65D3
:102F600061737572656D656E742054656D70003A9D
:102F70003A43686F6963655F424D45323830003AC5
:102F80003A43686F6963655F424D45323830002EC1
:102F90002E2E646F6E650009092E2E2E6D656173ED
:102FA0007572656D656E74205072657373002E2E98
:102FB0002E646F6E650009092E2E2E6D6561737586
:102FC00072656D656E742054656D70002E2E2E64D2
:102FD0006F6E650009092E2E2E6D65617375726521
:102FE0006D656E74205072657373002E2E2E646FA3
:102FF0006E650009092E2E2E6D6561737572656D03
:10300000656E742054656D70002E2E2E646F6E6593
:103010000009092E2E2E6D6561737572656D656EE2
:1030200074205072657373002E2E2E646F6E6500CF
:1030300009092E2E2E6D6561737572656D656E744E
:10304000205072657373002E2E2E646F6E6500091A
:10305000092E2E2E6D6561737572656D656E742017
:1030600054656D70002E2E2E646F6E650009092E5A
:103070002E2E6D6561737572656D656E7420546575
:103080006D70003A3A43686F6963655F424D503234
:103090003830003A3A43686F6963655F424D503299
:1030A0003830002000662000204352433D0020209D
:1030B000002E00202020543D000020004164647256
:1030C0006573732844454329203D200000200041BA
:1030D0006464726573732848455829203D20002E8A
:1030E0002E2E646F6E65002E2E2E646F6E6500525C
:1030F0006561642076616C75652073656E736F72AF
:103100003A20004F6B002B373931333930343539A1
:103110003235004572726F7220726561642073658A
:103120006E736F722000526561642076616C756504
:103130002073656E736F723A20004572726F720071
:103140002B37393133393034353932350053656EE8
:10315000736F72202000206973206F6666005365CC
:103160006E736F72202000206973206F6666002BDB
:1031700037393133393034353932350009092E2E9B
:103180002E6D6561737572656D656E742054656D25
:10319000700009092E2E2E6D6561737572656D655F
:1031A0006E742054656D7000003A3A43686F69632D
:1031B000655F44533138423230003A3A43686F69B0
:1031C00063655F44533138423230002E2E2E6572D3
:1031D000726F72002E2E2E6572726F72002E2E2E5E
:1031E0006572726F72002E2E2E6572726F72002ED3
:1031F0002E2E646F6E65002E2E2E646F6E65000994
:10320000092E2E2E6D6561737572656D656E742065
:1032100048756D6D0009092E2E2E6D6561737572EE
:10322000656D656E742048756D6D002E2E2E65726D
:10323000726F72002E2E2E6572726F72002E2E2EFD
:10324000646F6E65002E2E2E646F6E650009092E68
:103250002E2E6D6561737572656D656E7420546593
:103260006D700009092E2E2E6D6561737572656D86
:10327000656E742054656D70002E2E2E6572726F0F
:1032800072002E2E2E6572726F72002E2E2E646FBB
:103290006E65002E2E2E646F6E650009092E2E2E8F
:1032A0006D6561737572656D656E742048756D6DC1
:1032B0000009092E2E2E6D6561737572656D656E40
:1032C000742048756D6D002E2E2E6572726F72001F
:1032D0002E2E2E6572726F72002E2E2E646F6E650A
:1032E000002E2E2E646F6E65002E2E2E646F6E657E
:1032F0000009092E2E2E6D6561737572656D656E00
:10330000742054656D70002E2E2E646F6E6500095A
:10331000092E2E2E6D6561737572656D656E742054
:1033200054656D70003A3A43686F6963655F48544D
:1033300055323144003A3A43686F6963655F4854D7
:1033400055323144002E2E2E646F6E650009092E11
:103350002E2E6D6561737572656D656E7420437593
:103360007272656E74002E2E2E646F6E65000909F0
:103370002E2E2E6D6561737572656D656E742056A7
:103380006F6C74616765002E2E2E646F6E65000988
:10339000092E2E2E6D6561737572656D656E7420D4
:1033A00043757272656E74002E2E2E646F6E65000A
:1033B00009092E2E2E6D6561737572656D656E74CB
:1033C00020566F6C74616765002E2E2E646F6E65DB
:1033D0000009092E2E2E6D6561737572656D656E1F
:1033E000742043757272656E74002E2E2E646F6E9B
:1033F000650009092E2E2E6D6561737572656D6508
:103400006E742043757272656E74002E2E2E646F7A
:103410006E650009092E2E2E6D6561737572656DDE
:10342000656E7420566F6C74616765002E2E2E6475
:103430006F6E650009092E2E2E6D656173757265BC
:103440006D656E7420566F6C74616765003A3A431F
:10345000686F6963655F696E61323139003A3A437A
:10346000686F6963655F696E61323139002E2E2E97
:10347000646F6E650009092E2E2E6D65617375727D
:10348000656D656E74204C69676874002E2E2E641D
:103490006F6E650009092E2E2E6D6561737572655C
:1034A0006D656E74204C69676874003A3A43686FC2
:1034B0006963655F54534C32353631005F30783480
:1034C00039005F30783239005F30783339003A3A6A
:1034D00043686F6963655F54534C3235363100433E
:1034E0006F6E74726F6C6C65722069732073746197
:1034F00072746564002B37393133393034353932E1
:103500003500436F6E74726F6C6C65722069732046
:103510007374617274656400436F6E74726F6C6C67
:1035200065722069732073746172746564004D6FF5
:1035300064756C652000206572726F722020200017
:103540002E2E2E6572726F72002E2E2E6572726F85
:1035500072004D6F64756C65200020646F6E65208D
:103560002020002E2E2E646F6E65002E2E2E646F8E
:103570006E650009092E2E2E4D6F64756C65200056
:10358000092E2E2E4D6F64756C652000496E69748E
:1035900069616C697A6174696F6E20457865632032
:1035A0004D6F64756C653A2000496E697469616C91
:1035B000697A204D6F64756C6500496E6974696144
:1035C0006C697A6174696F6E2045786563204D6F10
:1035D00064756C650043616C63756C617465205340
:1035E000656E736F720043616C63756C6174652006
:1035F00053656E736F720043616C63756C617465C3
:103600002053656E736F723A20002E2E2E646F6EFB
:103610006500646F6E650009496E697469616C6963
:103620007A696E6720576972652E2E2E00496E6981
:10363000742053656E736F727300496E6974205302
:10364000656E736F7273003D3D3D3D3D2073636158
:103650006E65722044533138423230203D3D3D3D4D
:103660003D003D3D3D3D3D20693263207363616E09
:103670006572203D3D3D3D3D00436F6E6E65637458
:1036800065642073656E736F72733A20002E2E2E60
:10369000646F6E65002E2E2E646F6E6521212100F1
:1036A000496E697469616C697A20506F7274730035
:1036B000496E697469616C697A6174696F6E2070B2
:1036C0006F727473004C6F77206368617267652056
:1036D0006F662074686520626174746572793A203F
:1036E000004C6F7720636861726765206F66207495
:1036F00068652062617474657279006C6F7720630D
:10370000686172676500646F6E6500646F6E650066
:10371000646F6E650043616C63756C6174652056FF
:1037200043432E2E2E00090943616C63756C61744E
:1037300065205643432E2E2E0043616C63756C61E9
:103740007465205643432E2E2E2020200043616CAA
:1037500063756C617465205643430043616C637507
:103760006C617465205643430043616C63756C6102
:103770007465205643433A20005374617274207379
:103780006574757020636F6E74726F6C6C65720017
:10379000436F6E74726F6C6C6572207365747570B4
:1037A0002E2E2E003D3D3D3D3D3D3D3D3D3D3D3DB3
:1037B0003D3D3D3D3D3D3D3D3D3D3D3D3D3D3D3D39
:1037C0003D3D3D3D3D3D3D3D3D3D3D3D3D3D3D3D29
:1037D0003D3D3D3D3D3D3D3D3D3D3D3D3D3D3D3D19
:1037E0003D3D004F7065726174696F6E2077617442
:1037F0006368646F67004F7065726174696F6E20F3
:103800007761746368646F67004F6E20706F7765CF
:1038100072004F6E20706F776572004C6F77207664
:103820006F6C74616765004C6F7720766F6C7461A4
:103830006765004C6173742072657365743A20008B
:103840004B657920494E54350000000A0B02090CE3
:103850000D0E080703040100000000000000000036
:103860000000000000000000000000000000000058
:103870000000000000121110000000000000000015
:103880000000000000000000000000000000000137
:103890000210202008081020401020408002010261
:1038A0000108040201010204081020408080402029
:1038B0001008040201800402018040201008040264
:1038C00001080402010102040810204080010204E2
:1038D00008102040800505050507050808080802AE
:1038E0000202020A0A080804040404010101010199
:1038F0000101010303030303030303040707070C88
:103900000C0C0C0C0C0C0C0202020206060606063D
:103910000606060B0B0B0B0B0B0B0B0000200023FA
:1039200000260029002C002F0032000001000003B7
:10393000010601090100002200250028002B002EAD
:10394000003100340002010000050108010B0100F4
:10395000002100240027002A002D00300033000140
:10396000010000040107010A0100D81FA5262A2929
:10397000212C7B4A5C69806ABA86888FE590F59332
:103980006C98D19A4B9CB69D3CA52FA7D8A781A82F
:103990004EACE41F3629866A108711241FBECFEF74
:1039A000D1E2DEBFCDBF00E00CBF15E0A0E0B2E089
:1039B000ECECFBE701E00BBF02C007900D92A83DC5
:1039C000B107D9F72FE0A8EDB5E001C01D92A23DE7
:1039D000B207E1F71CE1C9ECDCE100E006C0219789
:1039E0000109802FFE010E94E1B3C53BD10780E0B1
:1039F0000807A9F70E94AFA80C94D4BD0C9400004E
:103A00000F931F93CF93C82F85E09FE00E94C1AB17
:103A10000C2F10E0C80188529B4F0E94BEBD86301B
:103A2000E9F128F4813051F0843029F1C3C08830A5
:103A300009F442C0893009F484C0BCC09091D80513
:103A40009111B8C08093D80567E174E08EE29DE0E3
:103A50000E94FDA862E174E08EE29DE00E943AA916
:103A600060E089E00E94C7AD8FED9CE0CF911F918F
:103A70000F910C94E13C6AEF73E08EE29DE00E94AE
:103A8000FDA866E78CEA9CE00E94E837882319F0DD
:103A900065EF73E088C06FEE73E085C067ED73E09B
:103AA0008EE29DE00E94FDA860E481E09DE00E941E
:103AB000263262ED73E077C02AE0C29FC001112474
:103AC000805F9B4F0E94BEBD893339F0893441F03D
:103AD000893269F466E973E005C064EB73E002C003
:103AE00068E773E08EE29DE00E94FDA806C069E6EB
:103AF00073E08EE29DE00E943AA98EE09DE00E9474
:103B0000255D8823D9F0C80188539A4F0E94BEBD15
:103B1000813039F460E18EE09DE00E94925D62E0C8
:103B200006C060E08EE09DE00E94925D60E08EE065
:103B30009DE00E947B5D64E673E035C06EE573E056
:103B400032C02AE0C29FC0011124805F9B4F0E94B7
:103B5000BEBD833219F08C35A1F02CC061E473E056
:103B60008EE29DE00E94FDA860E185EA9CE00E9453
:103B70005433882319F06CE373E015C066E373E0F7
:103B800012C069E173E08EE29DE00E94FDA860E151
:103B90008EE99CE00E945433882319F064E173E0BD
:103BA00002C06EE073E08EE29DE0CF911F910F9115
:103BB0000C943AA9CF911F910F910895982F8FEFF0
:103BC000890F843028F081E0983219F080E0089560
:103BD00081E00895982F8FEF890F843048F08CEEA4
:103BE000890F853028F081E0983219F080E008953F
:103BF00081E00895982F8FEF890F883068F085EF66
:103C0000890F883048F08CEE890F853028F081E0EC
:103C1000983219F080E0089581E008953A9A429A26
:103C200008953A9A4298089598B184E0892788B90E
:103C30000895399A419A0895399A4198089598B10A
:103C400082E0892788B908953B9A439A08953B9A60
:103C500043980895E6DFF0DFFACF98B188E089272E
:103C600088B908950A9A129A08950A9A129808959E
:103C70003C9A449A2FEF8FE493EC2150804090407F
:103C8000E1F700C0000044980895E7E0F1E080818A
:103C900080648083E8E0F1E080818F7B80830895F9
:103CA000E7E0F1E0808180648083E8E0F1E08081FA
:103CB000806480830895089A10980895089A109A4D
:103CC0000895099A11980895099A119A08950C9ADD
:103CD000149808950C9A149A08950B9A13980895BD
:103CE0000B9A139A08950D9A159808950D9A159A9E
:103CF00008950F9A179808950F9A179A08959A9A07
:103D0000A29808959A9AA29A08953D9A459808957E
:103D10003D9A459A089580B380BB81B381BB0895D5
:103D2000FACFF9CFF8CFF7CFF6CFF5CFF4CFF3CF67
:103D3000F2CFE1E0F1E0808188608083E2E0F1E0B1
:103D40008081886080830895E1E0F1E0808188606F
:103D50008083E2E0F1E08081877F808308956F9A1D
:103D6000779A08956F9A779808956B9A739A089541
:103D70006B9A73980895E1E0F1E08081806180831F
:103D8000E2E0F1E08081806180830895E1E0F1E08C
:103D9000808180618083E2E0F1E080818F7E80839A
:103DA00008956E9A769A08956E9A76980895E7E047
:103DB000F1E0808182608083E8E0F1E080818260D0
:103DC00080830895E7E0F1E0808182608083E8E00D
:103DD000F1E080818D7F80830895E1E0F1E08081D2
:103DE00080628083E2E0F1E08081806280830895D8
:103DF000E1E0F1E0808180628083E2E0F1E08081B7
:103E00008F7D80830895E7E0F1E080818460808386
:103E1000E8E0F1E08081846080830895E7E0F1E0EC
:103E2000808184608083E8E0F1E080818B7F808303
:103E30000895869A8E9A0895869A8E980895E7E056
:103E4000F1E0808188608083E8E0F1E08081877F15
:103E5000808308959D9AA59A08959D9AA59808959E
:103E6000E1E0F1E0808184608083E2E0F1E0808144
:103E7000846080830895E1E0F1E080818460808344
:103E8000E2E0F1E080818B7F808308959898999893
:103E90009A989B989C989D98EAE0F1E080818E7FAB
:103EA000808380818D7F808380818B7F80838081F0
:103EB000877F808380818F7E808380818F7D8083D8
:103EC00080818F7B808380818F7780835298539805
:103ED0005498559856985798389839983A983B98E6
:103EE0003C983D983E983F98089809980A980B98F6
:103EF0000C980D980E98E4E0F1E080818B7F808330
:103F00008081877F808380818F7E808380818F7D89
:103F1000808380818F7B808380818F77808380986E
:103F20008198829883988498859886988798E7E006
:103F3000F1E080818E7F808380818D7F808380818E
:103F40008B7F80838081877F808380818F7E808349
:103F500080818F7D808380818F7B808380818F773C
:103F60008083689869986A986B986C986D986E9839
:103F70006F98E1E0F1E080818E7F808380818D7F8A
:103F8000808380818B7F80838081877F8083808115
:103F90008F7E808380818F7D808380818F778083F7
:103FA00080818F7780832498259826982798089574
:103FB00068E472E082EE95E00E9403AF60E672E092
:103FC0008CED95E00C9403AF8CED95E00E9498AEDB
:103FD00082EE95E00C9498AE90E0FC017F97E9307A
:103FE000F10508F060C08827EE58FF4F8F4F0C9402
:103FF000E1B3662319F062EF75E006C083B14FC0EC
:10400000662339F06EED75E08EE29DE00E94FDA81A
:1040100053C083B186FB882780F991E089270895F2
:10402000662319F06AEC75E0EFCF83B18095881FA5
:104030008827881F0895662319F066EB75E0E4CFA2
:104040008091030182FB882780F9E7CF6623A1F1E5
:1040500062EA75E0D9CF662319F06EE875E0D4CF37
:104060008091030182958170D8CF662319F06AE7A9
:1040700075E0CACF8091030183FB882780F9CDCFFB
:10408000662319F066E675E0BFCF80910301C2CFC9
:10409000662319F062E575E0B7CF8091030185FBD7
:1040A000882780F9BACF662341F067E475E08EE295
:1040B0009DE00E94FDA801C0089580E00895CF937F
:1040C000CFE160E08C2F88DF682F70E04AE050E09D
:1040D0008EE29DE00E941EAA67E076E08EE29DE0FF
:1040E0000E94FDA8C73231F466E076E08EE29DE0E2
:1040F0000E943AA9CF5FC83221F7CF910895CF939C
:10410000E82FC42FA82FB0E0AA0FBB1FA051BA4FB1
:10411000862F90E08D939C938E2F90E0FC01319739
:10412000E832F10508F0A4C18827E558FF4F8F4F0A
:104130000C94E1B3423049F0433009F4AFC141304F
:1041400009F0A5C16DE375E010C0613011F4F1DD37
:10415000A4C1FADDA2C1423069F0433009F4A0C124
:10416000413009F094C163E375E08EE29DE00E9466
:10417000FDA893C1613011F4F2DD8FC1F3DD8DC173
:10418000423049F0433009F48DC1413009F07FC11C
:1041900069E275E0EACF613011F4E7DD7EC1E8DD68
:1041A0007CC1423049F0433009F47EC1413009F00E
:1041B0006EC16FE175E0D9CF613011F4DCDD6DC106
:1041C000E5DD6BC1423049F0433009F46FC1413045
:1041D00009F05DC165E175E0C8CF613011F4E1DD42
:1041E0005CC1E2DD5AC1423049F0433009F460C19C
:1041F000413009F04CC16BE075E0B7CF613011F48C
:10420000D6DD4BC1DFDD49C1423049F0433009F40E
:1042100067C1413009F03BC161E075E0A6CF613074
:1042200011F4DBDD3AC1E4DD38C1423049F04330FE
:1042300009F440C1413009F02AC167EF74E095CF1D
:10424000613011F4E0DD29C1E9DD27C1423061F0C0
:10425000433009F42FC1413061F46DEE74E08EE219
:104260009DE00E94FDA805C0613011F4E2DD01C0AF
:10427000E3DD68ED74E08EE29DE00E94FDA807C1D9
:10428000423049F0433009F417C1413009F0FFC012
:1042900068EC74E06ACFD3DD00C1423049F04330AE
:1042A00009F40CC1413009F0F2C061EC74E05DCF5B
:1042B000613011F400DDF1C001DDEFC0423049F0A2
:1042C000433009F4FDC0413009F0E1C06AEB74E00D
:1042D0004CCF613011F4F5DCE0C0F6DCDEC04230DA
:1042E00049F0433009F4EEC0413009F0D0C063EB2F
:1042F00074E03BCF613011F4EADCCFC0EBDCCDC021
:10430000423049F0433009F4DFC0413009F0BFC00A
:104310006CEA74E02ACF613011F4DFDCBEC0E0DC6F
:10432000BCC0423049F0433009F4D0C0413009F0FC
:10433000AEC065EA74E019CF613011F4D4DCADC0D1
:10434000D5DCABC0423049F0433009F4C1C0413044
:1043500009F09DC06EE974E008CF613011F4C9DC4A
:104360009CC0CADC9AC0423049F0433009F4B2C064
:10437000413009F08CC067E974E0F7CE613011F488
:10438000BEDC8BC0BFDC89C0423049F0433009F449
:10439000A3C0413009F07BC060E974E0E6CE613033
:1043A00011F4B3DC7AC0B4DC78C0423049F0433059
:1043B00009F494C0413009F06AC066E874E0D5CED3
:1043C000613011F4B5DC69C0B2DC67C0423049F03D
:1043D000433009F485C0413009F059C06CE774E0FE
:1043E000C4CE613011F4A2DC58C09FDC56C042300C
:1043F00049F0433009F476C0413009F048C062E723
:1044000074E0B3CE613011F48FDC47C08CDC45C062
:10441000423041F0433009F467C04130C1F568E6ED
:1044200074E0A3CE613011F47DDC37C07ADC35C096
:10443000423041F0433009F459C0413041F56EE556
:1044400074E093CE613011F46BDC27C064DC25C0CE
:10445000423041F0433009F449C04130C1F46AE4CC
:1044600074E083CE613011F4F5DC17C0F6DC15C0C2
:104470008091D905823011F08530D1F5C330C1F17A
:1044800060E374E08EE29DE00E94FDA831C0C4307C
:1044900021F48EE29DE00E9437A92BC08DE029C057
:1044A00086E027C08AE025C084E023C08DE321C0D8
:1044B0008EE31FC08FE31DC086E31BC080E219C0DE
:1044C0008FE117C087E215C08DE113C089E111C0EB
:1044D0008AE10FC088E10DC087E10BC089E009C007
:1044E00088E007C08CE305C089E303C08AE301C00C
:1044F0008FEFCF910895FF920F931F93CF93DF9388
:10450000EC01F62E08811981C8010E94BEBDF81683
:1045100021F06F2DC8010E94C6BDCE01DF91CF9161
:104520001F910F91FF900895CF92DF92EF92FF922B
:104530000F931F93CF93DF931F921F92CDB7DEB7D8
:104540006C017A836983CE0101967C0100E010E062
:10455000F70161917F01C601800F911F0E94C6BDC6
:104560000F5F1F4F0430110599F70F900F90DF91E7
:10457000CF911F910F91FF90EF90DF90CF90089512
:10458000CF92DF92EF92FF920F931F93CF93DF931F
:1045900000D01F92CDB7DEB77E0125E0E20EF11C00
:1045A0008E010F5F1F4F6C01C01AD10AC601800F28
:1045B000911F0E94BEBDF80181938F01EE15FF058A
:1045C000A9F789819A810F900F900F900F90DF913A
:1045D000CF911F910F91FF90EF90DF90CF900895B2
:1045E0000F931F93CF93DF931F921F92CDB7DEB728
:1045F000833099F140F4813081F0823009F071C04C
:1046000008EE13E01BC0853009F449C0B8F18630CC
:1046100009F067C00AE010E052C000ED17E01A830D
:10462000098360E0CE01019666DF0F5F1F4F013006
:1046300080E11807A1F763EB76E04FC01A83098386
:1046400060E0CE01019657DF0F5F1F4F003D87E00E
:104650001807A1F76DE876E040C00CEB12E01A8372
:10466000098360E0CE01019646DF0F5F1F4F073ED2
:1046700083E01807A1F769E676E02FC004E610E0B2
:104680001A83098360E0CE01019635DF0F5F1F4F6B
:104690000B3B82E01807A1F760E476E01EC004E15E
:1046A00010E01A83098360E0CE01019624DF0F5FDA
:1046B0001F4F04361105A9F769E176E00EC01A8391
:1046C000098360E0CE01019616DF0F5F1F4F0115D1
:1046D00080E11807A1F769E076E08EE29DE00E9494
:1046E0003AA90F900F90DF91CF911F910F910895EC
:1046F00008950C94BEBD1F93CF93DF93D82FC62F80
:10470000172F8091D905823011F08530F1F468E5DA
:1047100079E08EE29DE00E94FDA841E060E08D2FEF
:10472000EEDC67E479E08EE29DE00E94FDA84AE0BD
:1047300050E06C2F712F8EE29DE00E941EAA65E46E
:1047400079E08EE29DE00E943AA943E060E08D2F7F
:10475000D6DC6C2FDF91CF911F910C9403AEFF92AA
:104760000F931F93CF93DF93C62F082F10E0C8013C
:104770008E579F4FBEDFF82E43E060E0C0DCD82F9D
:104780009091D9058F3F09F488C0923011F095308F
:10479000A1F567E279E08EE29DE00E94FDA841E08C
:1047A00060E08F2DACDC64E279E08EE29DE00E9457
:1047B000FDA843E060E08F2DA2DC4AE050E0682FC6
:1047C0008EE29DE00E94BEA962E279E08EE29DE069
:1047D0000E94FDA86FE079E08EE29DE00E94FDA8B6
:1047E0004AE050E06C2F8EE29DE00E94BEA96DE091
:1047F00079E08EE29DE00E943AA9C80182559E4F61
:1048000078DF813031F06D2F70E089E796E00E940B
:10481000175B89E796E00E94AC5B882309F44CC0E3
:104820008091D905823011F0853031F46DEE78E059
:104830008EE29DE00E943AA98091D905823011F064
:10484000853031F46EEC78E08EE29DE00E943AA96A
:1048500089E796E00E94485B6C2F70E02091D905B3
:104860008617970739F4223011F0253069F46FEA82
:1048700078E006C0223011F0253031F46FE878E09E
:104880008EE29DE00E943AA989E796E0DF91CF9100
:104890001F910F91FF900C941C5B923011F095309A
:1048A00059F46DE678E08EE29DE0DF91CF911F91A3
:1048B0000F91FF900C943AA9DF91CF911F910F9126
:1048C000FF900895882329F0813031F466E678E07E
:1048D00005C069E678E002C065E678E08EE29DE01A
:1048E0000C943AA97F928F929F92AF92BF92CF92EF
:1048F000DF92EF92FF920F931F93CF93DF93C82F16
:104900008B01742E40E050E0BA0185E396E00E94EE
:10491000A92ED0E07E012FE5E20EF11CEE0CFF1C6B
:10492000C7012EDE4C01C70188972ADE6C018091F9
:10493000DB05882331F063E678E08EE29DE00E949B
:10494000FDA88091D905823039F0853009F04DC03D
:104950008091DB05811187C15E018EE3A81A8EEF7D
:10496000B80AC501C6DE8823A9F06BE478E08EE2C0
:104970009DE00E94FDA8C501BCDEB82E61E02CDBE5
:1049800067E478E08EE29DE00E94FDA860E08B2D58
:1049900023DB98DF5E012AE2A21A2EEFB20AC501DC
:1049A000A8DE8823A9F062E378E08EE29DE00E9411
:1049B000FDA8C5019EDEB82E61E00EDB6EE278E058
:1049C0008EE29DE00E94FDA860E08B2D05DB7ADF82
:1049D00066E078E08EE29DE00E94FDA8CE018E5751
:1049E0009F4F87DE41E060E08ADB01151105A9F0E9
:1049F00037DACE018E579F4F7CDE42E060E07FDBEE
:104A00008091D905823031F08530C1F48091DB0589
:104A100081111AC067EF77E006C08091D905823016
:104A200039F468EE77E08EE29DE00E943AA906C074
:104A3000853021F48091DB05882399F38091D90595
:104A4000823031F08530B9F48091DB05811113C0DB
:104A500066ED77E08EE29DE00E94FDA84AE050E01E
:104A6000B8018EE29DE00E941EAA63ED77E08EE21F
:104A70009DE00E943AA9C40101978031974248F411
:104A8000B401990C880B990B0E94A6B6AB01BC012E
:104A900014C08091D905823031F0853051F4809175
:104AA000DB05811106C066EA77E08EE29DE00E9498
:104AB0003AA940E050E06AE774E485E396E00E949A
:104AC0009B31C60101978031974248F4B601DD0C55
:104AD000880B990B0E94A6B6AB01BC0114C0809153
:104AE000D905823031F0853051F48091DB05811198
:104AF00006C06EE777E08EE29DE00E943AA940E0B2
:104B000050E06AEF73E485E396E00E943731C70115
:104B1000889636DD9C01D8010E94E9B36B017C01C7
:104B20008091D905823031F0853091F48091DB0598
:104B300081110EC062E577E08EE29DE00E94FDA843
:104B40002AE030E0B701A6018EE29DE00E9434AA7F
:104B50000115110511F181E080931206B701A6013C
:104B600085E396E00E94293085E396E00E94BE31FD
:104B7000FE01EE0FFF1FED5EF94F80819181800FE6
:104B8000911F918380831092120681E0781209C0F0
:104B90008091D905823029F52AC021E0721609F4E6
:104BA0006AC08091D905823031F08530B9F48091A6
:104BB000DB0581115DC06AE277E08EE29DE00E9434
:104BC000FDA8FE01EE0FFF1FED5EF94F60817181C0
:104BD0004AE050E08EE29DE00E9424AA012BC1F63B
:104BE0004AC0853001F58091DB05811116C065EF63
:104BF00076E08EE29DE00E94FDA885E396E00E94AB
:104C0000A32EA70196010E94C5B3BA01A9012AE00B
:104C100030E08EE29DE00E9434AA8091D905823076
:104C2000D9F08530A9F027D9CE018E579F4F61DD8D
:104C300042E061E0DF91CF911F910F91FF90EF90E3
:104C4000DF90CF90BF90AF909F908F907F9057CA8A
:104C50008091DB058111E7CF6EEC76E08EE29DE07E
:104C60000E943AA9E0CF0115110509F4E3CEC0CEA8
:104C7000012B09F0B8CFDF91CF911F910F91FF90D9
:104C8000EF90DF90CF90BF90AF909F908F907F90EC
:104C90000895EF92FF920F931F93CF93DF93F82E17
:104CA000C82FD0E0CE018E539E4F23DDE82ECE01DB
:104CB0008E579F4F1EDD182FCE0182599F4F19DD51
:104CC000833089F148F4813061F08230A9F560E0E9
:104CD00070E0812F10DD31C0843049F1853069F1F9
:104CE0002BC08E01000F111FF801ED5EF94F1182EC
:104CF0001082CE0186569E4FFCDCD82FC0E060E0CB
:104D00008E2D6AD9811109C0DC1738F0CF5F41E0E0
:104D10006FEF7FEF8F2DE6DDF2CFF801ED5EF94FFB
:104D2000118210820AC060E0812F19DD06C042E0C6
:104D300060E0812FE4D901C001C081E0DF91CF9113
:104D40001F910F91FF90EF900895CF92EF920F93E4
:104D500089E796E00E944F5ACC24C39485E0E82E60
:104D600004E022E443E461E085E396E00E94D7306A
:104D70000F91EF90CF9008950E94351E0E94321E31
:104D80000E94381E60EB7AE088E69EE00E943AA915
:104D90006FE97AE088E69EE00E943AA965E97AE048
:104DA00088E69EE00E943AA964E670E080E090E028
:104DB0000E94CCAC6BE87AE088E69EE00E943AA9BB
:104DC00064E670E080E090E00E94CCAC6DE77AE0B1
:104DD00088E69EE00E943AA964E670E080E090E0F8
:104DE0000E94CCAC61E77AE088E69EE00E943AA996
:104DF00064E670E080E090E00E94CCAC66E67AE089
:104E000088E69EE00C943AA9EF92FF920F931F93CD
:104E1000CF93DF9300D000D0CDB7DEB78C017B01FC
:104E200067E073E088E69EE00E942FA964E670E0E8
:104E300080E090E00E94CCAC62E173E0CE0101968C
:104E40000E9403AFB701CE0101960E94ACB06AE1A7
:104E500073E00E94BDB0BC0188E69EE00E944AA9B2
:104E6000CE0101960E9498AE64E670E080E090E08A
:104E70000E94CCACB80188E69EE00E9421A962E3C2
:104E800070E080E090E00E94CCAC6AE188E69EE0B1
:104E90000E9430A964EF71E080E090E00E94CCAC09
:104EA00026960FB6F894DEBF0FBECDBFDF91CF912F
:104EB0001F910F91FF90EF9008956AE57AE088E6E0
:104EC0009EE00E943AA960E57AE088E69EE00C94B4
:104ED0003AA9CF92DF92EF92FF920F931F93CF9355
:104EE000DF9300D000D0CDB7DEB709E713E0F801BB
:104EF000E190F1908F01B701CE0101960E9403AFBE
:104F0000BE016F5F7F4F84E896E00E9434B16C0170
:104F1000CE0101960E9498AED7FC1DC0B7018EE766
:104F200096E00E9453AF6CE173E0CE0101960E94BF
:104F300003AF6EE776E0CE0101960E94ACB0BC01F3
:104F40008EE29DE00E944AA9CE0101960E9498AE91
:104F500081E090E006C0F3E001381F0741F680E0F1
:104F600090E026960FB6F894DEBF0FBECDBFDF915E
:104F7000CF911F910F91FF90EF90DF90CF90089508
:104F80003F924F925F926F927F928F929F92AF92D9
:104F9000BF92CF92DF92EF92FF920F931F93CF9326
:104FA000DF93CDB7DEB7A0970FB6F894DEBF0FBE84
:104FB000CDBF84E896E00E9437B164E273E0CE0191
:104FC00001960E9403AFBE016F5F7F4F84E896E0B9
:104FD0000E9434B18C01CE0101960E9498AE17FD5B
:104FE00003C0E0E0F0E019956AE273E0CE010196BB
:104FF0000E9403AFBE016F5F7F4F84E896E00E947E
:1050000034B18C01CE0101960E9498AE17FD18C0F4
:1050100066E47AE08EE29DE00E943AA961E081E0D8
:105020000E9403AE64EF71E080E090E00E94CCAC9F
:1050300061E084E00E9403AE60E081E00E9403AE84
:1050400063E373E0CE0101960E9403AFBE016F5F80
:105050007F4F84E896E00E9434B18C01CE01019626
:105060000E9498AE17FD08C068E37AE08EE29DE0EA
:105070000E943AA90E94451E6AE373E0CE010196A0
:105080000E9403AFBE016F5F7F4F84E896E00E94ED
:1050900034B18C01CE0101960E9498AE17FDC1C0BB
:1050A00061E37AE08EE29DE00E943AA961E081E04E
:1050B0000E949E6864E27AE0CE0107960E94DBAF10
:1050C00080918E0C90918F0CA091900CB091910CCE
:1050D000898F9A8FAB8FBC8F8091020C9091030CBB
:1050E000A091040CB091050C8D8F9E8FAF8FB8A34B
:1050F000C090F60BD090F70BE090F80BF090F90B06
:105100008090EA0B9090EB0BA090EC0BB090ED0B25
:105110004090AE0B5090AF0B6090B00B7090B10B05
:105120003090E1091091E2090091E30962ED79E024
:10513000CE0143960E94DBAFBE016D5E7F4FCE0174
:105140000D960E944BAF602FCE010D960E94D4B0F9
:105150006BED79E00E94ECB0612F0E94D4B06DED50
:1051600079E00E94ECB0632D0E94D4B06FED79E03D
:105170000E94ECB061EE79E00E94ECB0B301A201B4
:105180000E94E0B06CEE79E00E94ECB06EEE79E047
:105190000E94ECB0B501A4010E94E0B064E973E0A4
:1051A0000E94BDB069EF79E00E94ECB0B701A601A2
:1051B0000E94E0B064E973E00E94BDB06EE07AE066
:1051C0000E94ECB04D8D5E8D6F8D78A10E94E0B095
:1051D00064E973E00E94BDB06EE17AE00E94ECB039
:1051E000498D5A8D6B8D7C8D0E94E0B0BC01CE0143
:1051F00001960E944BAFBE01695F7F4FCE010196C1
:1052000003DECE0101960E9498AECE010D960E945B
:1052100098AECE0143960E9498AECE0107960E94AA
:1052200098AE4BDEA0960FB6F894DEBF0FBECDBF92
:10523000DF91CF911F910F91FF90EF90DF90CF9072
:10524000BF90AF909F908F907F906F905F904F90A6
:105250003F90089568EB75E084E896E00E9403AF04
:1052600068EB75E08EE796E00C9403AF8EE796E06E
:105270000E9498AE84E896E00C9498AE0F931F932A
:10528000CF93DF9300D000D0CDB7DEB788E69EE0A5
:105290000E944FA5892B09F4E3C063EC79E08EE20C
:1052A0009DE00E943AA988E69EE00E944FA5892BC6
:1052B000A1F088E69EE00E9469A580937C06909309
:1052C0007D06682F84E896E00E9410B064E170E0EB
:1052D00080E090E00E94CCACE6CF67EB79E08EE214
:1052E0009DE00E94FDA864E876E08EE29DE00E94C9
:1052F0004AA962E370E080E090E00E94CCAC61E4F7
:1053000073E0CE0101960E9403AFBE016F5F7F4F35
:1053100084E896E00E9434B18C01CE0101960E948F
:1053200098AE17FD19C066EA79E08EE29DE00E9412
:105330003AA962E370E080E090E00E94CCACC9DD65
:10534000019719F461EA79E002C06CE979E088E636
:105350009EE00E943AA97EC067E473E0CE01019608
:105360000E9403AFBE016F5F7F4F84E896E00E940A
:1053700034B18C01CE0101960E9498AE17FD12C087
:105380006CE879E08EE29DE00E943AA962E370E069
:1053900080E090E00E94CCAC9CDD019709F05AC0FF
:1053A000EFDD58C06EE473E0CE0101960E9403AFBA
:1053B000BE016F5F7F4F84E896E00E9434B18C019C
:1053C000CE0101960E9498AE17FD44C060E879E0D6
:1053D0008EE29DE00E94FDA86EE776E08EE29DE001
:1053E0000E944AA96AE779E08EE29DE00E94FDA84A
:1053F00064E876E08EE29DE00E944AA962E370E0F4
:1054000080E090E00E94CCAC6AE173E0CE010196AE
:105410000E9403AFBE016F5F7F4F84E896E00E9459
:1054200034B18C01CE0101960E9498AE17FD06C0E2
:1054300068EE73E080E090E00E94CCAC60E779E039
:1054400088E69EE00E943AA968EC70E080E090E077
:105450000E94CCAC68EB75E084E896E00E9453AF04
:1054600026960FB6F894DEBF0FBECDBFDF91CF9169
:105470001F910F910895CF93DF93C82FD62F90E0FF
:1054800090938C0680938B0640E060E08DE896E078
:105490000E946146C11118C08DE896E00E9417462F
:1054A0006EE57BE08DE896E00E94FDA841E060E0BB
:1054B0008DE896E00E9461466CED75E08DE896E01F
:1054C000DF91CF910C9421A9C13009F0BEC0D11158
:1054D00068C08FE490E00E94BEBD813049F464E56D
:1054E0007BE08DE896E00E94FDA863E47BE008C0C5
:1054F0006CE37BE08DE896E00E94FDA86BE27BE028
:105500008DE896E00E94FDA840E06FE08DE896E00F
:105510000E94614669E27BE08DE896E00E94FDA86A
:1055200041E060E08DE896E00E9461464091AE0B5C
:105530005091AF0B6091B00B7091B10B22E030E055
:105540008DE896E00E941AAB61E08DE896E00E943B
:1055500030A967E27BE08DE896E00E94FDA866E155
:105560007BE08DE896E00E94FDA841E066E08DE8D2
:1055700096E00E94614680912A0D81110FC062E180
:105580007BE08DE896E00E94FDA860E17BE08DE87D
:1055900096E00E94FDA86FEF7AE0E4C069EF7AE040
:1055A000E1C0D13009F0E4C040E06AE08DE896E067
:1055B0000E94614640918E0C50918F0C6091900C2E
:1055C0007091910C22E030E08DE896E00E941AABD9
:1055D00041E060E08DE896E00E9461464091AE0BAC
:1055E0005091AF0B6091B00B7091B10B22E030E0A5
:1055F0008DE896E00E941AAB41E066E08DE896E007
:105600000E94614680912A0D882361F067EF7AE05D
:105610008DE896E00E94FDA861EF7AE08DE896E0C3
:105620000E94FDA841E06BE08DE896E00E94614693
:1056300061E873E085E79AE00E948A44BC018DE846
:1056400096E0DF91CF910C942FA9C23041F440E055
:1056500060E08DE896E0DF91CF910C946146C33015
:1056600069F540E060E08DE896E00E94614660EEFA
:105670007AE08DE896E00E94FDA841E060E08DE8C8
:1056800096E00E9461466BED7AE08DE896E00E941C
:10569000FDA868ED7AE08DE896E00E94FDA841E063
:1056A0006AE08DE896E00E94614665ED7AE08DE85B
:1056B00096E00E94FDA860ED7AE054C0C43009F085
:1056C00057C040E060E08DE896E00E9461466FEBD5
:1056D0007AE08DE896E00E94FDA841E060E08DE868
:1056E00096E00E94614681E08093200D6EEB7AE0A7
:1056F0008DE896E00E94FDA865E873E08DE896E0ED
:105700000E942FA980912D0D882371F041E060E067
:105710008DE896E00E9461466BEB7AE08DE896E0BA
:105720000E94FDA8C3E001C0C0E080912C0D882339
:1057300069F041E06C2F8DE896E00E94614668EBCD
:105740007AE08DE896E00E94FDA8CD5F80912B0D58
:10575000882371F041E06C2F8DE896E00E9461464D
:1057600065EB7AE08DE896E0DF91CF910C94FDA88F
:10577000DF91CF91089580918B0690918C068230B5
:10578000910569F01CF4019739F008958330910573
:1057900049F0049751F0089561E081E008C061E0AC
:1057A00082E005C061E083E002C061E084E063CE96
:1057B0001F93CF93DF93EC01162F8DE896E00E94A4
:1057C0001746112301F11130C1F541E060E08DE889
:1057D00096E00E946146BE018DE896E00E9421A9F4
:1057E00065E873E08DE896E00E942FA96CED75E006
:1057F00080E090E00E94CCAC8DE896E0DF91CF9104
:105800001F910C94554640E060E08DE896E00E94C0
:105810006146BE018DE896E00E9421A965E873E02B
:105820008DE896E00E942FA96CED75E080E090E095
:10583000DF91CF911F910C94CCACDF91CF911F9150
:10584000089522E040E167E28DE896E00C94F0458F
:105850000F931F93DC0112960C91129710E0093000
:105860001105D8F5F8018827ED55FF4F8F4F0C949F
:10587000E1B3ED91FC9111970084F185E02D29C0F1
:10588000ED91FC9111970284F385E02D22C0ED91FA
:10589000FC9111970484F585E02D1BC0ED91FC91DE
:1058A00011970684F785E02D14C0ED91FC911197B6
:1058B0000088F189E02D0DC0ED91FC9111970288CF
:1058C000F389E02D06C0ED91FC9111970488F589CC
:1058D000E02DCD011F910F9119941F910F91089503
:1058E000CF93DF93EC01CB01BA0126E030E040E03A
:1058F00050E00E94C5B3623071058105910559F1F0
:105900008CF46115710581059105F1F06130710527
:1059100081059105C1F5E881F9810480F581E02DCB
:1059200065E02DC0643071058105910511F1D4F059
:10593000653071058105910531F5E881F9810480B3
:10594000F581E02D66E01BC0E881F9810480F581D6
:10595000E02D64E014C0E881F9810480F581E02D38
:1059600061E00DC0E881F9810480F581E02D63E0FC
:1059700006C0E881F9810480F581E02D62E0CE0166
:10598000DF91CF911994DF91CF910895CF93DF9359
:10599000DC014770552766277727FA013197CD91AB
:1059A000DC911197E730F10530F48827E455FF4F7B
:1059B0008F4F0C94E1B3EC81FD8161E01BC0EC8161
:1059C000FD8165E017C0EC81FD8164E013C0EC81CE
:1059D000FD8166E00FC0EC81FD8162E00BC0EC81CF
:1059E000FD816AE007C0EC81FD8168E003C0EC81C5
:1059F000FD8169E0CD01DF91CF911994CF92DF92C3
:105A0000EF92FF920F931F93CF93DF93EC019A8154
:105A1000943041F0983031F0933031F0963021F0ED
:105A200012E003C014E001C013E02396E12CF12C36
:105A3000C62ED12C01E0C6010E2C02C0959587958B
:105A40000A94E2F76C8180FD602789910E9403AE81
:105A50008FEFE81AF80AE11670F3DF91CF911F91EA
:105A60000F91FF90EF90DF90CF9008950F931F93C9
:105A7000CF93DF93EC01E881F9810480F581E02D7B
:105A80008C010D5B1F4FD8018C91811102C060E029
:105A900001C062E0CE011995E881F9810480F581A9
:105AA000E02DD8018C91811102C061E001C063E05A
:105AB000CE0119958BA59CA50E9405ADE881F981C1
:105AC0000480F581E02DD8018C91811102C060E045
:105AD00001C062E0CE01DF91CF911F910F91199427
